:020000040800F2
:1000000008840120D5030008514D00085948000814
:100010004D4D0008A5240008A55700080000000069
:1000200000000000000000000000000015030008B0
:100030009D26000800000000710300083D4E0008E6
:10004000F9030008F9030008F9030008654D0008EA
:10005000F9030008F9030008F9030008F903000890
:10006000F9030008F9030008F9030008F903000880
:10007000F9030008F9030008F9030008F903000870
:10008000F9030008F9030008F9030008F903000860
:10009000F9030008F9030008F9030008F903000850
:1000A000F9030008F9030008F9030008F903000840
:1000B000F9030008F9030008F9030008F903000830
:1000C000F9030008F9030008F9030008F903000820
:1000D000F903000845560008A1560008B15600086B
:1000E000F9030008554D0008F9030008F90300085A
:1000F000F9030008F9030008F9030008F9030008F0
:10010000F9030008F9030008F9030008F9030008DF
:100110008D510008F9030008654E0008754E00086F
:10012000F9030008F9030008F9030008F9030008BF
:10013000F9030008F9030008F9030008F9030008AF
:10014000F9030008F9030008F9030008F90300089F
:10015000F9030008F9030008F9030008F90300088F
:10016000F9030008F9030008F9030008F90300087F
:10017000F9030008F9030008F90300080000000073
:10018000F9030008F903000800F002F800F0B2F8E3
:100190000AA090E8000C82448344AAF10107DA45E2
:1001A00001D100F0A7F8AFF2090EBAE80F0013F082
:1001B000010F18BFFB1A43F00103184714C50600CE
:1001C00034C506000A444FF0000C10F8013B13F050
:1001D000070408BF10F8014B1D1108BF10F8015BA0
:1001E000641E05D010F8016B641E01F8016BF9D193
:1001F00013F0080F1EBF10F8014BAD1C0C1B09D1EA
:100200006D1E58BF01F801CBFAD505E014F8016B5B
:1002100001F8016B6D1EF9D59142D6D370470000ED
:100220000023002400250026103A28BF78C1FBD8FF
:10023000520728BF30C148BF0B6070476E2900F0DD
:100240002786702900F0BD82662902F035A665294F
:1002500002F032A6672902F02FA6612902F02EA62D
:1002600003681B0A28BF41F08001692900F0F08172
:10027000642900F0ED81752900F0EA816F2901F011
:10028000F880782900F08982E92900F01D82E429AC
:1002900000F01A82F52900F01782EF2901F0F580AD
:1002A000F82900F088820368DB0928BF41F080014B
:1002B000632901F04080732901F04580E32901F0B2
:1002C000FF82F32901F00483002070471FB542F03C
:1002D000EEFD01F029F904000020002142F028FA87
:1002E000401C60600020002142F00CFAE0601FBD5D
:1002F00010B510BD01F0D6FB1146FFF7E7FF36F051
:100300005DF901F002FC03B4FFF7F2FF03BC07F054
:100310009BFB00002C4B19680868B0E8F04F80F395
:100320000988BFF36F8F4FF0000080F3118870478A
:100330000000000008480068006880F308884FF05B
:10034000000080F3148862B661B6BFF34F8FBFF32D
:100350006F8F00DF00BF00BF08ED00E0DFF80C008A
:10036000016841F470010160704700BF88ED00E052
:10037000EFF30980BFF36F8F134B1A681EF0100F55
:1003800008BF20ED108A20E9F04F106009B44FF04B
:10039000500080F31188BFF34F8FBFF36F8F40F091
:1003A00079FD4FF0000080F3118809BC19680868D6
:1003B000B0E8F04F1EF0100F08BFB0EC108A80F3C9
:1003C0000988BFF36F8F7047D4080020EFF30580D2
:1003D000704700000C48016841F4700101600B484F
:1003E00080470B480047FEE7FEE7FEE7FEE7FEE733
:1003F000FEE7FEE7FEE7FEE7FEE7000005480649E8
:10040000044A064B7047000088ED00E0514E00089A
:100410008901000808740120088401200874012063
:10042000704753EA020C00F069802DE9F04B4FF061
:100430000006002B1FBFB3FA83F503FA05F424FA74
:1004400005F65E4012BF1643B2FA82F502FA05F4D1
:10045000C5F120051EBF22FA05FC44EA0C04203534
:1004600056EA044C4FEA144418BF641C4FF00008CD
:100470004FF00009904271EB030C39D3002919BFEA
:10048000B1FA81F701FA07F6B0FA80F700FA07F639
:10049000C7F120071EBF20FA07FC46EA0C062037EA
:1004A000B6FBF4FCA7EB0507103F07F01F0BCBF1E1
:1004B00020060CFA0BFB2CFA06F644BFB3460026C6
:1004C000202FA4BF5E464FF0000B5BEA060C08BF6E
:1004D0004FF0010B19EB0B09ABFB027C48EB060854
:1004E000C01B06FB02CC0BFB03CC71EB0C01C1E77C
:1004F0000B46024641464846BDE8F08B13B54FF027
:1005000000004FF00001AFF30080BDE81C407047D1
:100510001CB50C46064B7B4469460090204600F013
:10052000E0FE04460020694600F0EEFE20461CBDB9
:10053000EF0D00000FB4044910B503AA029800F0B3
:1005400007FF10BC5DF814FB0C0800200FB41CB5AD
:10055000084B06AA7B4469460090059800F0C1FE4E
:1005600004460020694600F0CFFE20461CBC5DF822
:1005700014FB0000B10D00000FB47CB50C0009AAFB
:10058000009001D02044401E084B7B4469460190F6
:10059000089800F0A6FE05461CB10020694600F050
:1005A000B3FE28467CBC5DF814FB0000850D0000FE
:1005B00070B5044685690068C10601D5302600E0A3
:1005C0002026C00707D070BDD4E9012130469047EE
:1005D000206A401C20626D1EF6D570BD70B50446C1
:1005E00085690078C00707D170BDD4E901212020BA
:1005F0009047206A401C20626D1EF6D570BD70B514
:100600000C460546012A05D02878800600D5EA69FF
:10061000002302E0012305E05B1C934202D2E05C70
:100620000028F9D1A869E618C01AA861286A1844F8
:1006300028622846FFF7BCFF04E0D5E9012114F841
:10064000010B9047B442F8D32846FFF7C7FF70BDAF
:100650002DE9F0410646002410687529314616A59B
:1006600010D000F0AAFB002802DA404213A507E0F0
:1006700031688A0701D512A502E0490704D511A502
:10068000012401E000F0A2FB00210A2206F1240768
:1006900009E0B0FBF2FCB0FBF2F302FB1C003030CF
:1006A00078541846491C0028F3D123462A46304680
:1006B000BDE8F04100F093BB000000002D000000F9
:1006C0002B000000200000002DE9F0418046D21DE3
:1006D00022F007020025D2E90002F52915A614D060
:1006E000011E72F1000106DA0023D0EB030063EB78
:1006F000020211A608E0D8F800108B0701D50FA65A
:1007000002E0490701D50EA601251146002408F193
:10071000240704E000F00CFB30323A55641C50EA28
:100720000102F7D12B46324621464046BDE8F04152
:1007300000F055BB000000002D0000002B00000061
:1007400020000000F0B40D460188090502D5214CB7
:100750007C4402E01F4C7C440E34002100F124064E
:1007600008E002F00F071209E75D42EA03721B0975
:100770007754491C52EA0307F3D102780023120789
:1007800004D5702D06D009B1022311342246F0BCE5
:1007900000F025BB01231034F8E770B504460D4680
:1007A0002146106800F012FB024629462046BDE8AB
:1007B00070400023C6E7D21D22F00703D3E90023CF
:1007C000C0E70368126843F0200303600823C36195
:1007D0000023B7E7A3B706002DE9F05F894604467A
:1007E0004FF0000ADFF874B1FB44C0F820A02046A7
:1007F000E1688847002874D0252806D0D4E9012173
:100800009047206A401C2062F1E700265F462046A0
:10081000E16888472028054607DB312D05D2781985
:1008200010F8200C08B10643F1E7B00701D526F017
:100830000406C4F81CA00027C4F818A02A2D09D06B
:10084000284605F003F838B304EB8708303DC8F8B4
:10085000185019E059F8041B204604EB87029161F7
:10086000E1688847012F054618D1E069002820DAA1
:1008700026F020061DE0D8F8180000EB800005EBFC
:1008800040003038C8F818002046E168884705461F
:1008900004F0DCFF0028EED1012F0AD02E2D08D164
:1008A0002046E16888477F1C0546022F46F0200657
:1008B000C4DBA069002803DA404246F00106A061CB
:1008C000F00701D026F010066C2D0BD0682D09D052
:1008D0004C2D39D06A2D35D0742D35D07A2D33D0AA
:1008E00016E038E0E1682F4620468847B8420546C2
:1008F00009D16C2F26D04FF48060E1680643204672
:100900008847054604E06C2F1AD04FF480700643E8
:100910000DB3A5F14100192802D8203546F4006630
:100920004A462946204626604E46FFF787FC80B19E
:1009300001280BD0F61D26F0070000F1080956E744
:100940004020E4E78020D8E70020D6E706F104093C
:100950004DE7284652E7206ABDE8F09F33B706000E
:1009600070B5064600F0E0F90468054630460A22F4
:10097000002100F095FD2C6070BD30B505460B469A
:100980002A4613F8014B12F8010B08B1A042F8D027
:100990001CB1002802D06D1CF1E7284630BD40EAAA
:1009A0000103024630B59B0710D14FF0013400E03F
:1009B00008C208C91D1B9D4315EAC41FF8D013F0D7
:1009C000FF0102F8011B0DD01B0AF8E711F8013BEB
:1009D000002B02F8013B05D011F8013B002B02F877
:1009E000013BF3D130BD10B5431C02E010F8011BF0
:1009F00071B18107FAD14FF0013202C88C1A8C43D1
:100A000014EAC211F9D0C01A0A0603D0C01E10BDE4
:100A1000C01A10BD0A0401D0801E10BD0902FCD00E
:100A2000401E10BD40EA010370B59B072ED14FF068
:100A30000136042A2AD308C810C99D1B9D43121FE2
:100A400015EAC61517D0D8B2E1B2401A50EA0561CE
:100A500010D198B2A1B2401A50EA05410AD123F050
:100A60007F4024F07F41401A50EA052102D1180E40
:100A7000A0EB146070BDA342DBD018BA21BA884243
:100A800001D9012070BD4FF0FF3070BD0AB90020C0
:100A900070BD10F8013B11F8014B63B1A3420AD1BC
:100AA000521E08D010F8013B11F8014B1BB1A342B4
:100AB00001D1521EEDD1181B70BD032A40F23080C7
:100AC00010F0030C00F0158011F8013BBCF1020F8F
:100AD000624498BF11F801CB00F8013B38BF11F810
:100AE000013BA2F1040298BF00F801CB38BF00F827
:100AF000013B11F0030300F02580083AC0F00880A4
:100B000051F8043B083A51F804CBA0E80810F5E787
:100B1000121D5CBF51F8043B40F8043BAFF300806A
:100B2000D20724BF11F8013B11F801CB48BF11F8DF
:100B3000012B24BF00F8013B00F801CB48BF00F8AF
:100B4000012B704710B5203AC0F00B80B1E8185067
:100B5000203AA0E81850B1E81850A0E81850BFF4A7
:100B6000F5AF5FEA027C24BFB1E81850A0E8185046
:100B700044BF18C918C0BDE810405FEA827C24BF9A
:100B800051F8043B40F8043B08BF7047D20728BF28
:100B900031F8023B48BF11F8012B28BF20F8023B77
:100BA00048BF00F8012B704702F0FF0343EA03221D
:100BB00042EA024200F002B84FF000020429C0F0FD
:100BC000128010F0030C00F01B80CCF1040CBCF17F
:100BD000020F18BF00F8012BA8BF20F8022BA1EBD1
:100BE0000C0100F00DB85FEAC17C24BF00F8012BB6
:100BF00000F8012B48BF00F8012B70474FF00002AE
:100C000000B5134694469646203922BFA0E80C5002
:100C1000A0E80C50B1F12001BFF4F7AF090728BFDD
:100C2000A0E80C5048BF0CC05DF804EB890028BF59
:100C300040F8042B08BF704748BF20F8022B11F082
:100C4000804F18BF00F8012B704710B5044610F014
:100C5000030F08BF11F0030F40F015804FF0013E65
:100C6000121FC0F20E8051F8043BA3EB0E0C2CEACD
:100C7000030C1CEACE1C08BF40F8043BF0D0A1F1E5
:100C8000040102F10402521E08DB11F8013B002BA3
:100C900000F8013BF7D11146FFF78EFF204610BD4B
:100CA0004FF0013C50F8042B51F8043B9A4221D1FB
:100CB000A2EB0C03934313EACC1317D150F8042B87
:100CC00051F8043B9A4215D1A2EB0C03934313EA6B
:100CD000CC130BD150F8042B51F8043B9A4209D1A4
:100CE000A2EB0C03934313EACC13DBD04FF00000CC
:100CF000704700BFD01A01BAB1FA81F101F01801B2
:100D000022FA01F0CB40C1F12001DBB2C0B2C01A1F
:100D10002CFA01F3D11A914311EAC311E6D17047BD
:100D2000704770477047704700487047A4730120B0
:100D300030B5B0F10A024FEA900E71F100034EEAAD
:100D4000817EB0EB0E0061EB91014FEA101E4EEA7E
:100D5000017E10EB0E0041EB11114FEA102E4EEA0E
:100D6000016E10EB0E0041EB11214FEA104E4EEADE
:100D7000014E10EB0E0041EB1141401841F1000112
:100D80004FEAD00040EA41704FEAD10110EB8005F4
:100D90004FEA810444EA907444EB01046D1944EB7A
:100DA0000404521BA3414FF0000348BF0A3200D590
:100DB00030BD401C41F1000130BD09684A0501D534
:100DC00040B27047C905FCD500B2704709684A05B2
:100DD00001D5C0B27047C905FCD580B270472DE976
:100DE000F0470D4699469246044600F124080168F2
:100DF000880604D5E06921F01001216000E001209F
:100E0000A84201DD471B00E00027A1697A1902EB27
:100E10000900081AA0612078C00602D42046FFF716
:100E2000C7FB002608E0D4E901211AF80600904724
:100E3000206A401C761C20624E45F4DB2078C006F8
:100E40000AD52046FFF7B4FB06E0D4E901213020A3
:100E50009047206A401C2062381EA7F10107F4DC8D
:100E600007E0D4E9012118F805009047206A401CEA
:100E70002062281EA5F10105F3DC2046FFF7AEFB3A
:100E80002078000602D50220BDE8F0870120FBE7AC
:100E900011680268006A530501D508700AE0D3059D
:100EA00001D5088006E0130603D5C217C1E9000288
:100EB00000E008600120704770472DE9FF4F0C46A5
:100EC0001E464FF0FF378BB0D2E90001DDF860809D
:100ED0000A908A46C1F30A5505B93D4600210846E5
:100EE0004FF00000BAF1000F00F4400005DA00EB0B
:100EF00080004FF4400101EA50004FEA9059B9F1E7
:100F0000010F00DDB9460A9850EA4A000ED044F6B7
:100F10001050A5F2FF3545432F14B8F1000F1ED035
:100F20007542291E1EDDC9F100021CE0B8F1010F57
:100F30004FF0000001D0302103E0F24305E02154DE
:100F4000401CB042FBDB30460022002121540B99AB
:100F5000C1F80880C1E900200FB0BDE8F08FBD1BCB
:100F60006D1CDEE74A4600DA694206A800F004FD7F
:100F700006AB93E8070003AB83E8070050460A99E5
:100F800000F0CCFD8DE80700A0F500501F38009060
:100F90000398002D0ADD42F21F014A46084400234F
:100FA00003A90390684601F035F809E0A0F5005068
:100FB0004A461F38002303A90390684601F03FF812
:100FC0008DE807000004000C03D04FF0FF3041080B
:100FD00000E01046B8F1000F03D000220092154641
:100FE0001EE0751E05D4FFF7A3FE303262556D1E5C
:100FF000F9D5B3460122084302D000227F1C04E049
:101000002078302801D100227F1E002A099784D041
:101010001DE0112D07DAFFF78BFE303262556D1C93
:1010200050EA0102F5D1084302D00098C8B10EE0A1
:101030000021681E05E0235C625C63542254401E5C
:10104000491C8142F7DBAB46A81B401E09900020DB
:1010500004F80B000B98099AC0F80880C0E9002B2F
:101060007AE711264FF0000857E72DE9F04F884640
:101070000446D21D22F0070191B0D1E90001CDE96B
:101080000A0104F091FB02460B98C00F01D02D20FD
:1010900007E02068810701D52B2002E0202101EA2A
:1010A000C000032A099001D0072A05DB0346414608
:1010B000204600F0BBFB0BE12078800601D5E069FB
:1010C00000E00620B8F1650F814606D0B8F1660F42
:1010D00018D0B8F1670F70D131E00020B9F1110FCD
:1010E000009001DB112301E009F101030AAA01A923
:1010F0000CA8FFF7E2FEDDE90C70002609F10105FE
:10110000834647E001204B4600904FF000470AAA73
:1011100001A90CA8FFF7D1FEDDE90DB00C995D46E1
:10112000002610B909F101000D18B9EB050003D430
:10113000C0F1FF3609F10105A5EB09002BE0B9F17B
:10114000010F01DA4FF001090020B9F1110F0090F1
:10115000484601DD112300E003460AAA01A90CA8B4
:10116000FFF7ABFEDDE90C704D4600268346207884
:1011700000070AD4AB4500DA5D4601A8012D04DD65
:10118000411911F8011C302907D04F4502DA17F137
:10119000040F04DA012082460FE06D1EEEE7002FF7
:1011A00002DCED1B3E4403E0781CA84200DD7D1C00
:1011B000B81B00F1010A4FF000472078000703D464
:1011C000AA4501DB4FF0FF3A0021B7F1004F0DF1C6
:1011D00043088DF8431024D002202B23002F01DA7E
:1011E0007F422D230A21021EA0F1010000DC5FB125
:1011F00097FBF1FC97FBF1F201FB1C7C17460CF10D
:10120000300C08F801CDEEE7A8F101000370218849
:10121000090501D5452100E06521A0F1010800F88C
:10122000011C09980FA9A1EB0807FF1D00B10120BF
:10123000411901EBEA70A1693844081A401EA06107
:101240002078C00602D42046FFF7B2F9099828B1E9
:10125000D4E901219047206A401C20622078C00612
:1012600022D52046FFF7A4F91EE0002E04DBB3458B
:1012700002DD01A8805D00E03020D4E90121904723
:10128000206A401C2062761CAAF101005FEA000A75
:101290000AD100F049F9C0680168405CD4E9012135
:1012A0009047206A401C2062281EA5F10105DCDC65
:1012B00007E0D4E9012118F8010B9047206A401C8F
:1012C0002062381EA7F10107F3DC2046FFF786F9FC
:1012D000032011B041E6000001694A1C0261087850
:1012E000704700B58FB0CDE9013100210591054966
:1012F0007944CDE9031011466846FFF76DFA0FB047
:1013000000BD0000E5FFFFFF0A6802F8010B0A605C
:101310007047D1E900239A4202D2531C0B6010702F
:10132000704710B5436913B1AFF3008001E0FFF7D8
:1013300066F9012010BD127800F124010A70002224
:101340004A700122EDE711684FF0FF32E9E7000033
:10135000074B70B50D467B44FFF7C3FF0446284694
:1013600000F07CFB10B14FF0FF3070BD204670BD27
:101370004B6601002DE9FF5F15468A460446DFF8FB
:10138000AC80F8440027D8E900103E46CDE90010B3
:1013900010E03AF816106A4602A800F063FB411C00
:1013A00007D02178890603D5E269391891420DD812
:1013B0000744761C2078800602D5E069B84205DD36
:1013C000AE42E6DB3AF816000028E2D1A069C01B65
:1013D000A0612046FFF7ECF8D8E90010CDE9001035
:1013E000002017E03AF818106A4602A800F03AFB0D
:1013F000B0F1FF3F81460BD000250DF1080B05E051
:10140000D4E901211BF8050090476D1C4D45F7D329
:1014100008F10100B0428046E4DB206A38442062D3
:101420002046FFF7DBF8BDE8FF9F0000AAAB0600EF
:1014300030B4002100F1240408E002F00705D208CE
:10144000303542EA4372DB086554491C52EA030511
:10145000F3D10468002310A2250707D5A40600D401
:1014600021B1C46901230DA2641EC46130BCFFF721
:10147000B6BC10B5044621461068FFF7A7FC02462B
:101480002046BDE810400023D2E7D21D22F007011C
:10149000D1E90023CCE7000000000000300000008C
:1014A0002DE9F04791460F4680460446002614F881
:1014B000015B2DB100F030F80068405DC007F6D147
:1014C0002B2D02D02D2D18D0641E4A4639462046B9
:1014D00000F002FA27B13968A14201D1C7F80080B3
:1014E0004FF0020471050BD54042002803DDFFF7E1
:1014F0001BFC0460A007BDE8F08746F48066E4E7C3
:101500000028F8DAFFF710FC04606FF00040F2E703
:1015100000487047A473012010B500F005F8001DC5
:1015200010BD00BF0D12040000487047C4730120B5
:101530002DE9F04F04460D46D21D22F0070089B078
:10154000D0E900974846394604F02EF90246F80FD4
:1015500001D02D2307E02068810701D52B2302E06D
:10156000202101EAC0038DF820300BB1012000E0FA
:101570000020032A824601D0072A04DB29462046A0
:1015800000F054F93FE12078800601D40D2500E0F9
:10159000E569C7F30A560D2D49DA00214FEA175BBA
:1015A00008464FF00000002F00F4400007DA00EB7F
:1015B00080004FF4400100EBD07001EA600081151B
:1015C000012901DD4FF0FF3100224FEA850CBCF10B
:1015D000180F06D31346ACF118004FF08052C240EA
:1015E00003E04FF4801323FA0CF30CF10C0CBCF164
:1015F000200F04D3ACF1200C09FA0CF001E007FA3B
:101600000CF000294FF0004801DD18B90FE00ED1B1
:1016100040450CD319EB02095F4121B9404502D185
:101620009F4329EA0209BBEB175F00D0761C208894
:10163000000502D57B48784402E07A48784419389E
:1016400008AA302302F80A30037C0AF10101002EB7
:101650000AF1020A53546A4602DC4FF0300101E0FD
:101660004FF031014FF001088DF8001002D0A6F2C2
:10167000FF3603E059EA470100D06B4E002D02DC33
:101680002178090704D54FF002082E218DF80110AA
:10169000C44600210BE0C7F303433F01C35C491C70
:1016A0006D1E02F80830052908F1010801DA002D45
:1016B000F1DC00210CE000EB1973491C1B786D1E56
:1016C000082902F808304FEA091908F1010801DA7F
:1016D000002DF0DC21688B0602D516E0A8F1010888
:1016E000E04505DD02EB080313F8013C302BF5D093
:1016F000B8F1000F09DD02EB080313F8013C2E2BB3
:1017000003D1090701D4A8F10108002D05DD3E2110
:1017100002F808106D1E08F10108407C002E02F846
:10172000080008F1010804DA2D20764202F80800CA
:1017300002E02B2002F808000A214FF47A7086425A
:1017400008F101080BDB96FBF0F3303302F80830A8
:1017500096FBF0F308F1010800FB136601E0642E2C
:101760000CDB642096FBF0F3303302F8083096FB74
:10177000F0F308F1010800FB136601E00A2E06DB16
:1017800096FBF1F0303002F8080008F1010896FBF2
:10179000F1F001FB1060303002F80800A16908F197
:1017A000010808EB050202EB0A00081AA061207884
:1017B000C00602D42046FEF7FBFE216A08AE01EB0C
:1017C0000A00206204E0D4E9012116F8010B9047D9
:1017D000BAF1010AF7D22078C00602D52046FEF7FA
:1017E000E7FE6E4609E016F8010B3E280FD0D4E95B
:1017F00001219047206A401C2062B8F10108F2D212
:101800002046FEF7EBFE09B00320BDE8F08F206A0A
:101810002844206203E0D4E90121302090476D1E66
:10182000EBD3F8E711A9060002FCFFFF2DE9F04118
:101830001F46044603260168072A01F4006004DB02
:1018400008B116A505E016A503E008B115A500E04E
:1018500015A521F010002060A069C01EA0610FB185
:10186000401EA0612046FEF7A3FE4FB1D4E901213E
:1018700038469047206A401C2062C01C206206E067
:10188000206AFAE7D4E9012115F8010B9047761E8A
:10189000F8D22046FEF7A2FEBDE8F0814E414E0090
:1018A0006E616E00494E4600696E660010B5436970
:1018B00013B1AFF3008001E0FFF75CFD012010BD24
:1018C000128800F1240182840022C2840122EDE703
:1018D00011684FF0FF32E9E72DE9F05F82461546C7
:1018E0008B4600270AF10104B9460078302801D060
:1018F0009DB113E014F8010B0127782803D0582874
:1019000001D045B10AE00DB1102D07D1002714F820
:10191000010B102502E0082500E00A250026B0464C
:101920000EE005FB080005FB06F101271FFA80F811
:1019300001EB1046B6F5803F00D3B94614F8010B11
:10194000294600F0D4F80028EBDABBF1000F05D0EF
:101950000FB1641E00E05446CBF80040B9F1000F0F
:1019600006D0FFF7E1F902210160C81EBDE8F09F33
:1019700048EA0640FAE700002DE9F047814616469E
:101980008AB0354878440DC88DE80D003248784457
:10199000801C03AC0DC884E80D0041F69B30084460
:1019A000372190FBF1F290FBF1F5A5F1800501FBE9
:1019B00012041B3C02D56442012000E00020DFF845
:1019C00098A080460027FA44AAF1BE0A0EE0E0077C
:1019D0000AD03246684607EB470101230AEB810132
:1019E00000F02DFB8DE8070064107F1C002CEED169
:1019F000194F7F44AE3F19E0E80715D007EB0410FC
:101A00000DF1180A90E80E008AE80E00C068F04256
:101A100001D1981908903246012306A903A800F0C5
:101A20000EFB03AB83E807006D10641C002DE3D1AF
:101A30004FF0010332466946B8F1000F03A802D007
:101A400000F0E8FA01E000F0FAFAC9E90001C9F88B
:101A500008200AB0BDE8F08754A60600007B00F01D
:101A60008000704770B516460C460546FFF754FDDA
:101A7000036893F80101012806D0FF2C0FD8185DE8
:101A800068B101202C7070BDD3F8070132462146A1
:101A900003F2071303442846BDE8704018474FF08F
:101AA000FF3070BD7546FFF733FDAE460500694651
:101AB000534620F00700854618B020B5FEF79EFC7F
:101AC000BDE820404FF000064FF000074FF000083F
:101AD0004FF0000B21F00701AC46ACE8C009ACE8C0
:101AE000C009ACE8C009ACE8C0098D4670473A2887
:101AF00000D2303820F02002412A01D3A2F1370071
:101B0000884201D34FF0FF30704710B50446AFF361
:101B100000802046BDE81040FEF7F5BB5FEA400CB0
:101B200008BF91F0000F4FEA8C234FEAC12243EA2D
:101B300051514FEA1C5018BF00F5F0404FEA3000F9
:101B400018BF41F000415FEA6C5C00F02980BCF1F5
:101B5000FF3F08BF40F080407047130C06BF1204DF
:101B60004FF0100C4FF0000C130E04BF12020CF1DA
:101B7000080C130F04BF12010CF1040C930F04BFE7
:101B800092000CF1020CD30F04BF52000CF1010CB7
:101B900011464FF00002A0F11F00A0EB0C007047AF
:101BA00011F0004F08BF704731F000413FF4D5AF4E
:101BB0000B0C06BF09044FF0100C4FF0000C0B0E7D
:101BC00004BF09020CF1080C0B0F04BF09010CF152
:101BD000040C8B0F04BF89000CF1020CCB0F04BF67
:101BE00049000CF1010CCCF12003A0EB0C0022FA0F
:101BF00003F302FA0CF241EA030100F1010070471D
:101C000020F07F4C80EA030023F07F47ACEB070312
:101C100003F57C5300F0004003F1FF032DE98049F8
:101C20004FEA154B09B44FEA144325EA0B4E24EA58
:101C300003480FF2042606EB132749083E785FEAB3
:101C4000320203FB0667C7F5000707FB06F64FEAFB
:101C500054374FEAD64606F1020607FB066CCCF174
:101C6000005C4FEA1C472CEA074C07FB06F40CFB10
:101C700006F504EB15464FEA961634BF00204FF0E8
:101C800000404FEAD13706FB07FC4FEA1C4C0CFB27
:101C90000BF7D21B03FB0CF761EB07010CFB0EF7F4
:101CA000B0EB074072EB17420CFB08F734BFA2EB16
:101CB0000742B2EB074261EB17414FEA0C444FEA8F
:101CC000910706FB07FC4FEA1C4C0CFB0BF7B0EB33
:101CD000C74072EB573203FB0CF734BFA2EBC7428D
:101CE000B2EBC74261EB57310CFB0EF7B0EBC7000C
:101CF00072EB57720CFB08F734BFA2EBC702B2EBD2
:101D0000C70261EB5771039F4FEA816141EA92116B
:101D100004EBCC044FEAD1374FEA826206FB07FCA2
:101D200042EA90124FEA80604FEA1C4C0CFB0BF722
:101D3000D21B03FB0CF761EB07010CFB0EF7B0EBBA
:101D4000074072EB17420CFB08F734BFA2EB0742C7
:101D5000B2EB074261EB17414FEA8C554FEA91070E
:101D600004EB9C2406FB07FC4FEA1C4C0CFB0BF716
:101D7000B0EBC74072EB573203FB0CF734BFA2EB5A
:101D8000C742B2EBC74261EB57310CFB0EF7B0EB29
:101D9000C70072EB57720CFB08F734BFA2EBC70207
:101DA000B2EBC70261EB577115EB4C254FEA81612D
:101DB00041EA92114FEA82624FEAD13742EA901229
:101DC00006FB07FC44F100044FEA80604FEA1C4C1C
:101DD0000CFB0BF7D21B03FB0CF761EB07010CFBB1
:101DE0000EF7B0EB074072EB17420CFB08F734BF5D
:101DF000A2EB0742B2EB074261EB174115EB1C1552
:101E00004FEA813141EA92414FEA823242EA9042FE
:101E10004FEA80304FEA0C7644F1000448EA03436D
:101E20004EEA0B484FF0000EB2EB080C71EB0307C3
:101E300024BF624639464EEB0E0E4FF0000B0018E1
:101E4000524149414BEB0B0BB2EB080C71EB030712
:101E50007BF1000B24BF624639464EEB0E0E4FF06D
:101E6000000B0018524149414BEB0B0BB2EB080C35
:101E700071EB03077BF1000B24BF624639464EEB42
:101E80000E0E51EA020718BF46F0010616EB0E7659
:101E900055F1000254F1000103D5BDE88901BDE808
:101EA0000088BDE88901BDE80048B619524141EB00
:101EB0000101A3F10103704780807F7E7D7C7B7AE6
:101EC0007978777676757473727171706F6E6E6DE6
:101ED0006C6C6B6A6A69686867666665646463638C
:101EE00062616160605F5F5E5E5D5D5C5C5B5B5A12
:101EF0005A5959585857575656555555545453537F
:101F000052525251515050504F4F4F4E4E4D4D4DD9
:101F10004C4C4C4B4B4B4A4A4A4949494848484724
:101F20004747474646464545454444444443434362
:101F30004342424242414141002B9C4630D477000B
:101F40002BD01CB54FEA370703B44FF010004FF009
:101F50001001BAF1000F06D0BCF1000FDCBF40F059
:101F6000080040F008014FF000000FBCBDE8104031
:101F70000BF1010BBBF1010F08BF5FEA170722BF8E
:101F800012F1010211F101014FF0004143F1000390
:101F900000F0004043EA00007047F9D35708D0E74B
:101FA00046EA064613F1400F4FEA16461FDD13F1CD
:101FB000200FDFBF16430A46002120335B42BED00C
:101FC000C3F1200746EA064602FA07F74FEA16462B
:101FD00046EA0706C3F1200722FA03F201FA07F7DF
:101FE00021FA03F14FF0000342EA0702A7E746EAAD
:101FF000020646EA06464FEA164646EA0106BCBF16
:1020000046EA0646360C4FF000034FF000024FF050
:10201000000194E72DE9804C9A46934670B491E80C
:10202000380007C831EA400C48BF34EA430C03D5F6
:10203000FFF7E6FDFFF780FFF0BCBDE8008C2DE95F
:10204000804C9A46934670B491E8380007C810F067
:10205000804F08BF13F0804F03D100F005F8FFF761
:102060006BFFF0BCBDE8008C20F07F4780EA0300E6
:1020700023F07F4C07EB0C03A3F57C5300F00040EA
:10208000A3F1FE0392F0000F00F0B38095F0000F73
:1020900000F077802DE901494FEA11404FEA1446DC
:1020A00021EA004800FB06FC24EA064708FB06F686
:1020B00007FB08F800FB07F718EB06484CEB164C3B
:1020C0004FEA124B18EB07484FEA15464CEB174006
:1020D00022EA0B4E0BFB06FC25EA06470EFB06F632
:1020E00007FB0EFE0BFB07F71EEB064E4CEB164CE8
:1020F0004FF000061EEB074E4CEB174B18EB0B088E
:1021000040F1000018EB0E0B58EB000840F1000006
:102110008F1A4FF000013CBFC943661B14BFB5EBDB
:10212000040C00213CBFC943F61B4FEA17444EEA9A
:102130008E0E27EA04454FEA1C4704FB07622CEA8F
:10214000074C05FB07F70CFB05F604FB0CFC16EB34
:10215000074642EB174216EB0C4642EB1C421BEBC8
:10216000060658EB0202414146EA9E0601D5BDE84B
:102170000189B619524141EB0101A3F10103BDE808
:1021800001894FEA14454FEA114724EA054621EA3E
:10219000074C05FB07F406FB07F70CFB06F105FBF4
:1021A0000CFC11EB074144EB17444FEA124711EBCB
:1021B0000C4144EB1C4422EA074C05FB07F206FBEA
:1021C00007F70CFB06F605FB0CFC16EB074642EB8B
:1021D000174216EB0C4642EB1C456A1854F10001FD
:1021E00048BF7047B619524141EB0101A3F1010309
:1021F000704795F0000F37D04FEA11424FEA14476D
:1022000021EA024624EA074C02FB07F106FB07F726
:102210000CFB06F402FB0CFC14EB074441EB1741EA
:102220004FEA154714EB0C4441EB1C4125EA074CDF
:1022300002FB07F506FB07F70CFB06F602FB0CFC9E
:1022400016EB074645EB174516EB0C4645EB1C42D3
:10225000121951F1000148BF7047B619524141EBC4
:102260000101A3F1010370474FEA14454FEA1147FA
:1022700024EA054621EA074C05FB07F106FB07F7B0
:102280000CFB06F24FF0000605FB0CFC12EB0742BC
:1022900041EB174112EB0C4251EB1C4148BF704718
:1022A000921841EB0101A3F10103704755494A68B7
:1022B00022F440324A604A6843681A434A6002681E
:1022C000526822F4807203685A6002685368026997
:1022D00043EA022203685A600268526822F04072A0
:1022E00003685A600268526883681A4303685A6038
:1022F0000268926822F4006203689A600268926839
:10230000C3681A4303689A603F4B826A9A4218D0A6
:102310000268926822F0706203689A6002689268AC
:10232000836A1A4303689A600268926822F04052F6
:1023300003689A6002689268C36A1A4303689A60E5
:102340000BE00268926822F0706203689A6002688B
:10235000926822F0405203689A600268926822F004
:10236000020203689A6002689368027E43EA4202AE
:1023700003689A602022125CA2B10268526842F49B
:10238000006203685A600268526822F4604203687F
:102390005A6002685368426A521E43EA4232036836
:1023A0005A6005E00268526822F4006203685A60CD
:1023B0000268D26A22F470020368DA620268D36AA1
:1023C000828B521E43EA02520368DA620268926804
:1023D00022F4007203689A600268936890F83020D3
:1023E00043EA422203689A600268926822F480629B
:1023F00003689A6002689368426943EA822203682C
:102400009A607047002301400100000F10B54FF49F
:10241000E13006F027FC044624B105A0FEF78AF857
:10242000012010BD06A0FEF785F80020F9E70000A6
:10243000206C6F7261206572726F720D0A0000006D
:102440006C6F7261207375636573730D0A00000011
:1024500038B5044600BF00BF002000900F48006858
:1024600040F020000D4908600846006800F0200098
:10247000009000BF00BF00BF00221146372000F0CF
:1024800080FE372000F06DFE05480068C06840F00F
:10249000010003490968C86038BD000040380240A7
:1024A000E810002000BFFEE710B5632140F28F6006
:1024B00006F0BAFF10BD000010B5002400BF184898
:1024C000006820F44030164908600846006808603B
:1024D00000BF04E0601CC4B201200AF019FE1048DD
:1024E00010300068C0F3002008B1642CF2DB642CCB
:1024F00001DB012010BD002404E0601CC4B20120F7
:102500000AF006FE064810300068C0F3002008B943
:10251000642CF2DB642C01DB0120EBE70020E9E70F
:102520000018024000B587B000BF002001900F489E
:10253000006840F040000D4908600846006800F05F
:102540004000019000BF00BF481502900120039099
:1025500004900320059002A9054800F089FC00F0D2
:1025600071F8FFF7A9FF07B000BD00003038024046
:102570000018024010B5002404E0601CC4B2012021
:102580000AF0C6FD10480068C0F3002008B1642CB2
:10259000F3DB002404E0601CC4B201200AF0B8FDA3
:1025A00009480068C0F3002008B9642CF3DB282038
:1025B0000AF0AEFD04480068C0F3002008B1012015
:1025C00010BD0020FCE700001018024070B5002488
:1025D000002506E06006040EFFF7CCFF0443681CEC
:1025E000C5B2082DF6DB204670BD7CB505460E460B
:1025F00000F028F8FFF760FFF8B9002405E0FFF7C6
:10260000E5FF0DF80400601CC4B2052CF7DB9DF853
:1026100000009DF8011008449DF8021008449DF840
:10262000031008449DF80410884208D19DF800006A
:1026300030709DF80200287001E001207CBD002070
:10264000FCE7000010B500BF1348006820F44030DC
:10265000114908600846006840F48030086000BFF7
:1026600000BF0D481430006820F480700A4914310E
:10267000086000BF14200AF03FFD00BF0648143078
:10268000006840F4807004491431086000BF1E20C7
:102690000AF03EFD10BD000000180240704770B502
:1026A00000F04EF804460125B4F5E16F01DA00258B
:1026B00000E00125284670BD00B587B0142102A8AE
:1026C000FEF79CFA00BF002001901A48006840F015
:1026D0000400184908600846006800F004000190F2
:1026E00000BF00BF00BF002001900846006840F016
:1026F000010008600846006800F00100019000BF7A
:1027000000BF0820029000200390012004900320C5
:10271000059002A9084800F0ABFB102002900320AE
:1027200003900020049002A9044800F0A1FB07B028
:1027300000BD0000303802400008024000000240A6
:1027400010B5042005F09AFC84B21421042005F091
:10275000ABFC84B2204610BD70B504461D46002374
:10276000B5F5804F13D154F822300C480340D1E91D
:10277000000640EA06108E6840EA06208E8940EA8C
:1027800006408E693043034344F8223003E06FF083
:10279000704044F82200002070BD00000000F0CF1F
:1027A00010B503460022086853F820201248024062
:1027B000D1E901042043CC6820430C6920434C69D3
:1027C00020438C692043CC6920430C6A20434C6A27
:1027D00020438C6A2043CC6A2043CC6B20430C6B93
:1027E000204302438868082801D142F0400208686B
:1027F00043F82020002010BD8000F0FF30B50346D4
:102800000024501C53F8204004F04044D1E9000556
:1028100040EA05108D6840EA05208D8940EA0545AB
:10282000088A401E45EA0055087D801E45EA006082
:102830008D6928430443501C43F82040002030BDDC
:102840001CB527F0EFFC2FF03FFC2FF065FC06488D
:10285000012100234A02CDE9001004A106483FF0FF
:102860004DFA3EF097FA1CBD900900207374617216
:10287000745F7461736B00004DAF030810B586B0D0
:1028800004461D492068884233D100BF00BF0020A4
:1028900000901A48006840F0010018490860084696
:1028A000006800F00100009000BF00BF00BF00BF43
:1028B00000BF0020009011481030006840F0020076
:1028C0000E49103108600846006800F002000090D0
:1028D00000BF00BF00BF40200190022002900120F5
:1028E000039002200490059001A9054800F0C0FA69
:1028F00000BF06B010BD00000004004030380240A8
:102900000000024038B502460020009000BF92F857
:102910003C00012801D1022038BD012082F83C0092
:1029200000BF0868092816D91068C0680C780A3CEE
:1029300004EB44050724AC40A0431468E0600C7825
:102940000A3C04EB44048868A0401468E46820430F
:102950001468E06013E0106800690C7804EB44052B
:102960000724AC40A043146820610C7804EB4404B5
:102970008868A0401468246920431468206148686E
:10298000072817D21068406B0C79641E04EB84058D
:102990001F24AC40A04314686063088880B20C799F
:1029A000641E04EB8404A0401468646B2043146824
:1029B000606331E048680D2817D21068006B0C790D
:1029C000E41F04EB84051F24AC40A043146820637B
:1029D000088880B20C79E41F04EB8404A0401468DA
:1029E000246B20431468206316E01068C06A0C79D9
:1029F0000D3C04EB84051F24AC40A0431468E06246
:102A0000088880B20C790D3C04EB8404A040146863
:102A1000E46A20431468E062194B1A4C1068A04223
:102A200006D10868122803D1586840F48000586025
:102A3000144C1068A0421CD10868102802D0086805
:102A4000112816D1586840F4000058600868102812
:102A50000FD10D4800680D4CB0FBF4F000EB800086
:102A60004000009002E00098401E0090009800286E
:102A7000F9D100BF002082F83C0000BF00BF4BE747
:102A800000230140002001400408002040420F00C4
:102A900001460868C06C704770B5044600250CB943
:102AA000012070BD1549A06A884200D000BF206C8B
:102AB00030B9204600F024F80020606484F83C001F
:102AC000206C00F0100088B9206C20F4885040F091
:102AD000020020642046FFF7E9FB00206064206CC0
:102AE00020F0020040F00100206400E0012500BF5A
:102AF000002084F83C0000BF2846D2E70100000F08
:102B000010B586B004461B492068884230D100BF0A
:102B100000BF002000901848006840F480701649FB
:102B200008600846006800F48070009000BF00BF95
:102B300000BF00BF00BF002000900F48143800689D
:102B400040F001000C49143908600846006800F0A4
:102B50000100009000BF00BF00BF302001900320A3
:102B600002900020039001A9044800F081F900BF01
:102B700006B010BD00200140443802400000024071
:102B800070B504460D4600262068806800F4806019
:102B9000B0F5806F11D12068806800F48070B0F5C6
:102BA000807F0AD1206C40F02000206400BF00200C
:102BB00084F83C0000BF012070BD00F079FA0646A1
:102BC00018E0681CB0B125B100F072FA801BA84271
:102BD00010D92068006800F0020002280AD0206C9A
:102BE00040F00400206400BF002084F83C0000BFD7
:102BF0000320E1E72068006800F002000228E0D12D
:102C00006FF0120021680860206C40F400702064AE
:102C10002068806800F04050B8B9207EA8B92068CC
:102C2000C06A00F4700020B12068806800F4806001
:102C300058B9206C20F480702064206C00F480501F
:102C400018B9206C40F0010020640020B4E70000B7
:102C500008B501460020009000BF91F83C00012813
:102C600001D1022008BD012081F83C0000BF0868A6
:102C7000806800F00100A0B90868806840F0010099
:102C80000B6898603F4800683F4BB0FBF3F000EBE7
:102C90004000009002E00098401E0090009800283C
:102CA000F9D10868806800F00100002860D0086C45
:102CB00040F20163984340F48070086408684068FB
:102CC00000F4806028B1086C20F4005040F480507B
:102CD0000864086C00F48050B0F5805F04D1486C43
:102CE00020F00600486401E00020486400BF002096
:102CF00081F83C0000BF254A6FF022000B68186085
:102D0000506800F01F0018BB214B0868984213D090
:102D1000204B0868984204D1101D006800F01F0085
:102D200050B11D4B086898422AD11848001D006810
:102D300000F01F00102823D20868806800F040507F
:102D4000F0B90868806840F080400B68986017E030
:102D50000F4B0868984213D10868806800F0405013
:102D600070B90868806840F080400B68986007E0A0
:102D7000086C40F010000864486C40F001004864A2
:102D800000206FE70408002040420F0000230140AC
:102D900000200140002101400022014070B504469E
:102DA000A56D00F085F9064694F83500022808D094
:102DB0008020606500BF002084F8340000BF01203F
:102DC00070BD2068006820F0160021680860206847
:102DD000406920F0800021684861206C08B9A06C2F
:102DE00028B12068006820F0080021680860206889
:102DF000006820F00100216808600FE000F058F939
:102E0000801B05280AD92020606500BF002084F8B7
:102E1000340000BF032084F83500D1E72068006843
:102E200000F001000028E9D194F85C103F208840B0
:102E3000A86000BF002084F8340000BF012084F89F
:102E400035000020BCE7014691F83500022803D088
:102E50008020486501207047052081F8350008680A
:102E6000006820F001000A6810600020F3E700000D
:102E7000F8B502460B460025002400200021DEE0C4
:102E8000012606FA01F51E6806EA0504AC4275D172
:102E90001E7906F00306012E04D01E7906F0030603
:102EA000022E13D190684F000326BE40B0434F005E
:102EB000DE68BE4030439060506801268E40B043CB
:102EC0001E79C6F300168E40304350601E7906F01E
:102ED0000306032E09D0D0684F000326BE40B0433E
:102EE0004F009E68BE403043D0601E7906F0030656
:102EF000022E13D1CF0802F1200656F827004E0704
:102F0000F70E0F26BE40B0434F07FF0E1E69BE40AE
:102F10003043CF0802F1200646F8270010684F0022
:102F20000326BE40B0431E7906F003064F00BE40A4
:102F3000304310605E6806F08056B6F1805F7DD148
:102F400000BF00260096404E366846F480463E4F4D
:102F50003E603E46366806F48046009600BF00BFDD
:102F60003A4E8F0856F827008E07370F0F26BE40BF
:102F7000B043374EB24202D1002624E05EE0354E27
:102F8000B24201D101261EE0334EB24201D10226E7
:102F900019E0324EB24201D1032614E0304EB24263
:102FA00001D104260FE02F4EB24201D105260AE0DE
:102FB0002D4EB24201D1062605E02C4EB24201D17F
:102FC000072600E008268F073F0FBE4030431F4E04
:102FD0008F0846F82700264E3068A0435E6806F446
:102FE0008036B6F5803F00D12043214E3060361D3B
:102FF0003068A0435E6806F40036B6F5003F00D1A5
:1030000020431B4E361D3060361D3068A0435E687D
:1030100006F48016B6F5801F00D12043144E083602
:103020003060361D3068A0435E6806F40016B6F5C1
:10303000001F00D120430E4E0C363060491C102971
:10304000FFF41EAFF8BD00004438024008380140CC
:10305000000002400004024000080240000C024050
:10306000001002400014024000180240001C024000
:10307000003C0140024613690B400BB1012000E007
:103080000020704710B5426921EA020302EA0104F8
:1030900043EA0443836110BD0AB1816101E00B047E
:1030A0008361704701480068000C7047002004E00D
:1030B00001480068704700001808002001464AF6E1
:1030C000AA200A68106000207047000003480068CA
:1030D000034909780844014908607047180800202E
:1030E0002008002010B50A48006840F40070084924
:1030F00008600846006840F480600860032000F023
:103100007FF80F2000F006F800F02AF8002010BD2C
:10311000003C024070B504460E4800784FF47A71C6
:10312000B1FBF0F00C490968B1FBF0F5284600F05E
:10313000FBFC08B1012070BD102C07D200222146F3
:10314000501E00F01EF80548046001E00120F2E77F
:103150000020F0E720080020040800201C080020C0
:10316000704701460846002809DB00F01F030122D2
:103170009A4043099B0003F1E023C3F8002100BFFC
:1031800070472DE9F05F80460D461646002702F095
:1031900023FB074639462A46334601F00700C0F1B3
:1031A000070ABAF1040F02D94FF0040A01E0C0F196
:1031B000070AD14600F1040ABAF1070F02D24FF014
:1031C000000A01E0A0F1030AD4464FF0010A0AFA0E
:1031D00009FAAAF1010A0AEA020A0AFA0CFA4FF0FD
:1031E000010B0BFA0CFBABF1010B0BEA030B4AEAE8
:1031F0000B042146404602F0F7FABDE8F09F0000BC
:1032000000BF00F00702064B19684FF6FF03194094
:10321000044B0B4343EA0221014B196000BF704786
:103220000CED00E00000FA0570B504460D460CB93F
:10323000012070BD5848006800F00700A84209D27C
:1032400055490D700846006800F00700A84201D0FB
:103250000120EEE7207800F0020002281DD120783E
:1032600000F00400042805D14C48006840F4E05008
:103270004A490860207800F00800082805D147482E
:10328000006840F46040454908604448006820F008
:10329000F000A168084341490860207800F001006F
:1032A000A8B36068012807D13C4808380068C0F31B
:1032B0004040B8B90120BCE76068022802D06068CD
:1032C000032807D1354808380068C0F3406048B982
:1032D0000120AEE7314808380068C0F3400008B963
:1032E0000120A6E72D48006820F00300616808432C
:1032F0002A490860FFF7DCFE064609E0FFF7D8FE22
:10330000801B41F28831884202D9032091E707E00F
:103310002248006800F00C006168B0EB810FEDD12D
:103320001D48006800F00700A84209D91A490D702D
:103330000846006800F00700A84201D0012078E7A5
:10334000207800F00400042807D11448006820F415
:10335000E050E168084311490860207800F0080057
:10336000082808D10D48006820F46040216940EA2F
:10337000C1000A49086000F03FF808490968C1F334
:103380000311074A515CC8400649086006480068B6
:10339000FFF7C0FE00204CE7003C02400838024026
:1033A000C02E0408040800201C0800200148006802
:1033B000704700000408002000B5FFF7F7FF04493C
:1033C0000968C1F38221034A515CC84000BD000076
:1033D00008380240D02E040800B5FFF7E7FF044983
:1033E0000968C1F34231034A515CC84000BD000086
:1033F00008380240D02E04082DE9F04700240025AB
:103400000026A1462548006800F00C0020B10428E1
:1034100005D008283AD105E0DFF8849039E0DFF8DC
:10342000849036E01D48001F006800F03F041B48F0
:10343000001F006800F4800078B11A481749091F7E
:103440000968C1F38811A0FB0170014622460023E0
:103450003846FCF7E6FF05460EE011480F49091F04
:103460000968C1F38811A0FB0170014622460023C0
:103470003846FCF7D6FF05460848001F0068C0F331
:103480000140401C4600B5FBF6F902E0DFF8109061
:1034900000BF00BF4846BDE8F08700000838024082
:1034A0000024F40000127A00F8B504460CB901209B
:1034B000F8BD207800F00100002874D0F9480068B9
:1034C00000F00C0004280DD0F648006800F00C0055
:1034D000082813D1F348001F006800F48000B0F5FD
:1034E000800F0BD1EF4808380068C0F34040002837
:1034F00059D06068002856D10120D9E700BF606824
:10350000B0F5803F08D1E7480838006840F48030C3
:10351000E449083908601EE06068B0F5A02F0DD1BD
:10352000E0480838006840F48020DE490839086027
:103530000846006840F4803008600CE0D94808383C
:10354000006820F48030D7490839086008460068D0
:1035500020F48020086000BF606890B1FFF7A8FDEC
:10356000054606E0FFF7A4FD401B642801D90320AF
:103570009EE7CC4808380068C0F340400028F1D0EE
:1035800011E0FFF795FD054606E0FFF791FD401BB2
:10359000642801D903208BE7C24808380068C0F3CB
:1035A00040400028F1D1207800F0020002285FD1CD
:1035B000BC48006800F00C0058B1BA48006800F040
:1035C0000C0008281CD1B748001F006800F48000D8
:1035D000B0B9B44808380068C0F3400020B1E068D2
:1035E000012801D0012063E7AE480838006820F0C8
:1035F000F800216940EAC100AA490839086037E0AB
:10360000E06800B30120A8490860FFF751FD0546B6
:1036100006E0FFF74DFD401B022801D9032047E7D4
:10362000A04808380068C0F340000028F1D09D4849
:103630000838006820F0F800216940EAC100994983
:103640000839086014E0002097490860FFF730FD52
:10365000054606E0FFF72CFD401B022801D9032098
:1036600026E7904808380068C0F340000028F1D1F0
:10367000207800F0080008282CD16069A8B101204A
:103680008A490860FFF714FD054606E0FFF710FDC4
:10369000401B022801D903200AE782486C300068E9
:1036A000C0F340000028F1D014E000207F490860FA
:1036B000FFF7FEFC054606E0FFF7FAFC401B022878
:1036C00001D90320F4E677486C300068C0F340006D
:1036D0000028F1D1207800F00400042870D10027E0
:1036E00070483830006800F0805090B900BF00206A
:1036F00000906C483830006840F08050694938319B
:1037000008600846006800F08050009000BF00BFCD
:1037100001276748006800F48070B0B96448006809
:1037200040F4807062490860FFF7C2FC054606E07D
:10373000FFF7BEFC401B022801D90320B8E65C4815
:10374000006800F480700028F2D000BFA068012853
:1037500008D154486830006840F001005149683190
:1037600008601DE0A06805280DD14E48683000684B
:1037700040F004004B49683108600846006840F09A
:10378000010008600CE047486830006820F0010044
:103790004449683108600846006820F00400086069
:1037A00000BFA068A8B1FFF783FC054609E0FFF75A
:1037B0007FFC401B41F28831884202D9032077E622
:1037C00026E0384868300068C0F340000028EED09A
:1037D00013E0FFF76DFC054608E0FFF769FC401BAE
:1037E00041F28831884201D9032061E62D486830D2
:1037F0000068C0F340000028EFD1012F07D129480D
:103800003830006820F0805026493831086000BF09
:10381000A069002845D02348006800F00C00082863
:103820005DD0A069022845D100201F490866FFF736
:103830003FFC054606E0FFF73BFC401B022801D990
:10384000032035E6174808380068C0F340600028B8
:10385000F1D1D4E907010843616A40EA81110122EC
:10386000A06AC2EB500041EA00412C20005D41EA11
:1038700000600C49091F086001200B490866FFF72A
:1038800017FC054606E0FFF713FC401B022801D990
:1038900003200DE6034808380068C0F340600028A4
:1038A000F1D049E00838024000004742800E47420C
:1038B00000700040002021490866FFF7F9FB05462B
:1038C00006E0FFF7F5FB401B022801D90320EFE5D6
:1038D0001B480068C0F340600028F2D12CE0A069CA
:1038E000012800D1E4E51648001D0668A0690128FA
:1038F00020D006F48001E06981421BD106F03F012F
:10390000206A814216D147F6C0703040616AB0EB40
:10391000811F0FD106F440310122A06AC2EB500092
:10392000B1EB004F06D106F070612C20005DB1EBC9
:10393000006F01D00120BBE50020B9E5000047423F
:10394000003802407047704710B504462068C068D0
:10395000C0F3802050B12046FFF7F5FF2068C06813
:1039600000F0800060F490602168C8604FF480002F
:10397000024908600120607710BD0000143C01403E
:1039800010B5044601A0FCF7D5FD10BD414C4152D5
:103990004D2041210D0A000010B5044620688068C2
:1039A000C0F3003078B12068C068C0F3002050B187
:1039B0002046FFF7E5FF2068C06800F0800060F453
:1039C000C0702168C86020688068C0F3403078B15A
:1039D0002068C068C0F3402050B12046FFF7B2FF16
:1039E0002068C06800F0800060F420702168C86022
:1039F0004FF40030024908600120607710BD0000DC
:103A0000143C014070B504460E4615460CB9012021
:103A100070BD94F8490028B9002084F84800204679
:103A200000F01CF804F108012068FEF7B9FE3146E9
:103A3000A2682068FEF7E2FE2946236BD4E9010262
:103A4000FEF78AFEA168206850F8210040F00100CE
:103A5000A268216841F822000020D9E710B586B09D
:103A6000044600BF002000902248006840F001009A
:103A7000204908600846006800F00100009000BF7F
:103A800000BF00BF002000901A480838006840F0CE
:103A900008001849083908600846006800F0080066
:103AA000009000BF00BF00BF0020009008460068E3
:103AB00040F0100008600846006800F01000009018
:103AC00000BF00BF4CF20370019002200290012061
:103AD0000390022004900C20059001A90648FFF7EE
:103AE000C7F94FF68070019001A90448FFF7C0F9AB
:103AF00006B010BD38380240000C024000100240F1
:103B0000042808D14FF0E021096941F004014FF089
:103B1000E022116107E04FF0E021096921F0040182
:103B20004FF0E0221161704770B504462546681ECB
:103B3000B0F1807F01D301200FE0681E4FF0E0213B
:103B400048610F214FF0FF3001F04EFE00204FF092
:103B5000E021886107200861002070BD7047704730
:103B600010B504460CB9012010BD94F83D0028B9E9
:103B7000002084F83C00204600F026F8022084F85B
:103B80003D00211D206801F0A7F9012084F84600BE
:103B900000BF84F83E0001213F200155402001551F
:103BA0004120015500BF00BF012084F8420043209E
:103BB0000155442001554520015500BF012084F8DE
:103BC0003D000020D0E7000038B504460F492068CA
:103BD000884219D100BF00BF002000900C48006847
:103BE00040F010000A4908600846006800F0100024
:103BF000009000BF00BF00BF032201213620FFF765
:103C0000C0FA3620FFF7ADFA38BD000000100040C2
:103C100040380240014691F83D00012801D00120C2
:103C20007047022081F83D000868C06840F001003C
:103C30000B68D8601A4B086898421BD00868B0F12E
:103C4000804F17D0174B0868984213D0164B08685E
:103C500098420FD0154B086898420BD0144B086857
:103C6000984207D0134B0868984203D0124B08685B
:103C700098420CD10868806800F00702062A0CD030
:103C80000868006840F001000B68186005E00868EB
:103C9000006840F001000B6818600020C0E70000D9
:103CA000000001400004004000080040000C0040FB
:103CB000000401400040014000180040704710B56A
:103CC000044620680069C0F34000D8B12068C0688D
:103CD000C0F34000B0B16FF002002168086101201C
:103CE00020772068806900F0030018B12046FFF7B4
:103CF000E5FF05E0204600F0ADF8204600F05DF954
:103D00000020207720680069C0F38000D8B12068C7
:103D1000C068C0F38000B0B16FF004002168086192
:103D2000022020772068806900F4407018B1204696
:103D3000FFF7C4FF05E0204600F08CF8204600F0B5
:103D40003CF90020207720680069C0F3C000D8B19A
:103D50002068C068C0F3C000B0B16FF008002168EF
:103D60000861042020772068C06900F0030018B1C2
:103D70002046FFF7A3FF05E0204600F06BF8204641
:103D800000F01BF90020207720680069C0F30010C4
:103D9000D8B12068C068C0F30010B0B16FF0100057
:103DA00021680861082020772068C06900F440700D
:103DB00018B12046FFF782FF05E0204600F04AF8E0
:103DC000204600F0FAF8002020772068006900F013
:103DD000010058B12068C06800F0010030B16FF0F8
:103DE000010021680861204600F06EF92068006932
:103DF000C0F3C01058B12068C068C0F3C01030B123
:103E00006FF08000216808612046FFF7A7FE206858
:103E10000069C0F3801058B12068C068C0F38010FA
:103E200030B16FF0400021680861204600F05AF977
:103E300020680069C0F3401058B12068C068C0F322
:103E4000401030B16FF02000216808612046FFF774
:103E500086FE10BD704770B504460D46164600BF7D
:103E600094F83C00012801D1022070BD012084F8A3
:103E70003C0000BF36B1042E1BD0082E31D00C2ED2
:103E80005ED145E02946206801F0A4F820688069E9
:103E900040F00800216888612068806920F00400F3
:103EA00021688861206880692969084321688861E0
:103EB00047E02946206801F0C5F82068806940F491
:103EC0000060216888612068806920F48060216832
:103ED000886120688069296940EA01202168886139
:103EE0002FE02946206801F0EBF82068C06940F017
:103EF00008002168C8612068C06920F004002168BA
:103F0000C8612068C069296908432168C86118E050
:103F10002946206801F010F92068C06940F400606B
:103F20002168C8612068C06920F480602168C86188
:103F30002068C069296940EA01202168C86100E061
:103F400000BF00BF00BF002084F83C0000BF00BFDE
:103F50008BE710B504460CB9012010BD94F83D0064
:103F600028B9002084F83C00204600F025F8022003
:103F700084F83D00211D206800F0AEFF012084F888
:103F8000460000BF84F83E0001213F20015540203B
:103F900001554120015500BF00BF012084F84200B7
:103FA00043200155442001554520015500BF012003
:103FB00084F83D000020D0E77047704770B5044694
:103FC0000D4615B994F83E000BE0042D02D13F20B8
:103FD000005D06E0082D02D14020005D01E0412097
:103FE000005D012801D0012070BD1DB9022084F8B8
:103FF0003E000EE0042D03D102213F20015508E0D0
:10400000082D03D102214020015502E00221412068
:10401000015501222946206800F0CAFF2349206883
:10402000884203D022492068884201D1012000E063
:10403000002028B12068406C40F4004021684864AA
:104040001A49206888421BD02068B0F1804F17D0F1
:1040500018492068884213D01749206888420FD039
:104060001649206888420BD011492068884207D041
:1040700013492068884203D01249206888420CD135
:104080002068806800F00706062E0CD020680068C3
:1040900040F001002168086005E02068006840F0F9
:1040A00001002168086000209EE700000000014038
:1040B000000401400004004000080040000C0040E3
:1040C0000040014000180040044A0168914204D1B8
:1040D00003490968491C024A1160704700100040FA
:1040E0003008002070477047704700002DE9F84FF6
:1040F0000446206805682068C668206847694FF054
:104100000009CA4605F00F09B9F1000F0AD105F000
:10411000200038B106F0200020B1204601F093F8CD
:10412000BDE8F88FB9F1000F72D007F0010018B99F
:1041300006F4907000286BD005F0010030B106F451
:10414000807018B1206C40F00100206405F004007C
:1041500030B107F0010018B1206C40F0020020647B
:1041600005F0020030B107F0010018B1206C40F0FA
:104170000400206405F0080048B106F0200010B9E2
:1041800007F0010018B1206C40F008002064206C9A
:1041900070B305F0200028B106F0200010B12046D1
:1041A00001F051F820684069C0F3801A206C00F0DB
:1041B000080010B9BAF1000F23D0204601F018F81A
:1041C0002068406900F04000402816D1206840690E
:1041D00020F0400021684861A06B50B15648A16BA7
:1041E0000865A06BFEF72FFE10B1A06B016D88472C
:1041F0000CE02046FFF778FF08E02046FFF774FF49
:1042000004E02046FFF770FF0020206488E7FFE706
:10421000206B012879D105F01000002875D006F038
:104220001000002871D000BF0020009020680068B6
:10423000009020684068009000BF00BF206840697F
:1042400000F04000402839D1A06B006840681FFA98
:1042500080F8B8F1000F30D0A08D40452DDDA4F8D6
:104260002E80A06BC069B0F5807F1FD02068C06829
:1042700020F480702168C8602068406920F0010047
:10428000216848612068406920F040002168486149
:10429000202084F83E00002020632068C06820F0C1
:1042A00010002168C860A06BFEF778FDA08DE28D3C
:1042B000801A81B22046FFF716FF31E7A08DE18D0D
:1042C000401A1FFA80F8E08DE8B1B8F1000F1AD05B
:1042D0002068C06820F490702168C8602068406938
:1042E00020F0010021684861202084F83E00002071
:1042F00020632068C06820F010002168C860414633
:104300002046FFF7F0FE0BE7FFE705F0800030B135
:1043100006F0800018B1204601F02DF900E705F005
:10432000400030B106F0400018B1204600F07BFF9D
:10433000F6E600BFF4E60000DD51000810B50446C3
:104340000CB9012010BDA06900B100E000BF94F8D5
:104350003D0028B9002084F83C00204600F028F8F1
:10436000242084F83D002068C06820F400502168B3
:10437000C860204600F0C6FF2068006920F4904025
:10438000216808612068406920F02A00216848619E
:104390002068C06840F400502168C8600020206494
:1043A000202084F83D0084F83E000020CAE7000089
:1043B00010B586B004467E492068884255D100BFBA
:1043C00000BF002000907B48006840F01000794951
:1043D00008600846006800F01000009000BF00BFB1
:1043E00000BF00BF00BF0020009072481438006872
:1043F00040F001006F49143908600846006800F079
:104400000100009000BF00BF00BF00BF00BF002040
:1044100000900846006840F0010008600846006807
:1044200000F00100009000BF00BF00BF48150190E0
:1044300002200290012003900220049007200590A2
:1044400001A95D48FEF714FD4FF48060019007203C
:10445000059001A95848FEF70BFD2520FEF781FEC7
:10446000032211462520FEF78CFE5449206888421D
:1044700057D100BF00BF002000904E48001F0068C9
:1044800040F400304B49091F08600846006800F4FA
:104490000030009000BF00BF00BF00BF00BF002081
:1044A000009044481438006840F001004149143934
:1044B00008600846006800F00100009000BF00BFDF
:1044C00000BF00BF00BF002000900846006840F019
:1044D000010008600846006800F00100009000BF7D
:1044E00000BF00BF04200190022002900120039031
:1044F000022004900720059001A92F48FEF7B8FC80
:10450000082001900720059001A92B48FEF7B0FC78
:104510002620FEF726FE022203212620FEF731FE8A
:1045200044E027492068884240D100BF0020009025
:1045300020481438006840F002001E491439086011
:104540000846006800F00200009000BF00BF00BFF6
:10455000002000901748001F006840F48020154993
:10456000091F08600846006800F48020009000BF22
:1045700000BF081501900220029001200390022044
:1045800004900720059001A90E48FEF771FC4FF436
:104590000060019001A90B48FEF76AFC2720FEF796
:1045A000E0FD022211462720FEF7EBFD06B010BD0C
:1045B0000010014044380240000002400044004026
:1045C00000480040000402402DE9F84F04460E4622
:1045D000174699464FF0000A94F83E0020285FD114
:1045E00006B117B90120BDE8F88F00BF94F83C0070
:1045F000012801D10220F6E7012084F83C0000BF29
:1046000000202064222084F83E0000202063FEF772
:104610004FFD8246A785E785A068B0F5805F04D18D
:10462000206910B90025B04602E035464FF0000879
:1046300000BF002084F83C0000BF29E05346002260
:1046400020212046CDF8009000F0C5FF08B10320DE
:10465000C9E745B920684068C0F30800A8F8000021
:1046600008F1020811E0A068B0F5805F03D0A068EF
:1046700028B9206918B920684068287004E02068CB
:10468000406800F07F0028706D1CE08D401EE085C2
:10469000E08D0028D2D1202084F83E000020A2E73F
:1046A0000220A0E770B504460D46164694F83E0079
:1046B000202816D105B10EB9012070BD00BF94F8B5
:1046C0003C00012801D10220F7E7012084F83C00DA
:1046D00000BF0020206332462946204600F028FF14
:1046E000EBE70220E9E7000010B504462049206806
:1046F00088423BD11F48008800F4004088BB1D4819
:10470000008800F4804070B11B4800780A2803D06C
:1047100000201849088024E01648008840F4004032
:10472000144908801DE0144800780D2806D111486E
:10473000008840F480400F49088012E00E4800785D
:104740000C490988C1F30D010C4A505409480088EE
:10475000401C0849088008460088C72801DD002061
:104760000880012204490648FFF79CFF10BD0000A5
:10477000004400401208002015080020E00D002031
:10478000EC0E00202DE9F84F04460E4617469946D8
:104790004FF0000A94F83D0020285AD106B117B90D
:1047A0000120BDE8F88F00BF94F83C00012801D13A
:1047B0000220F6E7012084F83C0000BF00202064BE
:1047C000212084F83D00FEF773FC8246A784E7842D
:1047D000A068B0F5805F04D1206910B90025B0460B
:1047E00002E035464FF0000800BF002084F83C008E
:1047F00000BF1BE05346002280212046CDF80090E8
:1048000000F0E9FE08B10320CBE745B9B8F8000095
:10481000C0F308002168486008F1020803E0287826
:10482000216848606D1CE08C401EE084E08C00280C
:10483000E0D15346002240212046CDF8009000F000
:10484000CAFE08B10320ACE7202084F83D00002018
:10485000A7E70220A5E7704700BFFEE710B50022DA
:104860004FF480710C48FEF717FC00224FF40071E2
:104870000948FEF711FC00F011F801221102064868
:10488000FEF70AFC00F00AF800224FF4807102489B
:10489000FEF702FC10BD00000004024010B5042029
:1048A00008F036FC10BD000070B500240122510252
:1048B0001448FEF7F1FB00251AE000224FF4807146
:1048C0001048FEF7E9FBFFF7E9FF012211020D484E
:1048D000FEF7E2FB6006040E4FF400710948FEF794
:1048E000C9FB08B1601CC4B2FFF7D8FF681CC5B291
:1048F000082DE2DB00224FF480710248FEF7CCFB6A
:10490000204670BD0004024070B5044600224FF4FA
:1049100080711548FEF7C0FB002521E004F08000FF
:1049200028B1012251021048FEF7B6FB05E0002233
:104930004FF400710C48FEF7AFFBFFF7AFFF012209
:1049400011020948FEF7A8FBFFF7A8FF00224FF469
:1049500080710548FEF7A0FB6006040E681CC5B216
:10496000082DDBDB70BD00000004024010B5012201
:1049700051020C48FEF790FB012211020948FEF794
:104980008BFBFFF78BFF00224FF400710548FEF709
:1049900083FBFFF783FF00224FF480710148FEF78D
:1049A0007BFB10BD0004024010B500224FF40071E3
:1049B0000848FEF771FB012211020648FEF76CFB66
:1049C000FFF76CFF012251020248FEF765FBFFF77B
:1049D00065FF10BD0004024010B500240122510201
:1049E0001148FEF759FBFFF759FF012211020E484B
:1049F000FEF752FBFFF752FF07E0601CC4B2FA2C2F
:104A000003DDFFF7D1FF012010BD4FF40071064810
:104A1000FEF730FB0028F0D100224FF480710248ED
:104A2000FEF73AFB0020EFE70004024010B588B023
:104A3000142103A8FCF7E2F800BF002001904648CB
:104A4000006840F00200444908600846006800F031
:104A50000200019000BF00BF4FF44070039011208E
:104A60000490012005900220069003A93B48FEF720
:104A7000FFF9012211023948FEF70EFB0122510213
:104A80003648FEF709FB642008F036FB002410E0EE
:104A900000224FF480713148FEF7FEFAFFF7FEFE68
:104AA000012211022D48FEF7F7FAFFF7F7FE601C0E
:104AB000C4B2092CECDBFEF7FBFA29490860FFF7CA
:104AC00055FFB020FFF720FFFFF786FF002840D1F9
:104AD00020208DF8080003208DF809009DF80800BB
:104AE000FFF712FFFFF778FF9DF80900FFF70CFFB3
:104AF000FFF772FFFFF758FF4FF4967008F0FCFACB
:104B0000FFF734FFB020FFF7FFFEFFF765FF00BBA4
:104B100020208DF808001E208DF809009DF808005F
:104B2000FFF7F2FEFFF758FF9DF80900FFF7ECFED4
:104B3000FFF752FF0020FFF7E7FEFFF74DFF0120D0
:104B4000FFF7E2FEFFF748FFFFF72EFF01200549C0
:104B5000087008B010BD0000303802400004024068
:104B600088080020840800203EB5FFF7FFFEB02033
:104B7000FFF7CAFEFFF730FF28B131480078401C2C
:104B80002F49087059E020208DF8000008208DF88A
:104B900001009DF80000FFF7B7FEFFF71DFF28B1E9
:104BA00027480078401C2649087046E09DF801001F
:104BB000FFF7AAFEFFF710FF28B121480078401C3C
:104BC0001F49087039E0FFF7EFFE1E2008F094FA45
:104BD000FFF7CCFEB120FFF797FEFFF7FDFE28B1EF
:104BE00017480078401C1649087026E0FFF75CFE65
:104BF0008DF80400FFF732FEFFF756FE8DF8050032
:104C0000FFF72CFEFFF750FE8DF80600FFF726FE9B
:104C10009DF805009DF8041040EA0124B4F5C87F12
:104C20000ADB4EF66020844206DC06480480002041
:104C30000349087020463EBD00BF02480088FAE7DD
:104C40008E0800208C08002070B500F05BF8054647
:104C5000B5F57A7F02DC00F05DF808B9012400E0C8
:104C6000002405480078844204D00A2008F044FA61
:104C700001480470204670BD8108002000B587B04F
:104C8000142102A8FBF7BAFF00BF002001901A48C8
:104C9000006840F04000184908600846006800F0CD
:104CA0004000019000BF00BF00BF002001900846F7
:104CB000006840F0010008600846006800F001004C
:104CC000019000BF00BF4FF400400290002003900D
:104CD000012004900320059002A90848FEF7C8F8B7
:104CE00020200290032003900020049002A9044891
:104CF000FEF7BEF807B000BD303802400018024091
:104D00000000024010B51421052003F0CDF984B253
:104D1000204610BD10B54FF400410A48FEF7AAF92D
:104D2000044609480078844208D00A2008F0E4F9D3
:104D30004FF400410348FEF79DF904460248047011
:104D4000204610BD001802408008002000BFFEE78A
:104D50007047000010B50248FEF71EFE10BD0000AF
:104D60000813002010B50248FEF7EEFD10BD00004C
:104D70000813002010B50446012C05D1002204219F
:104D80000548FEF789F905E024B90122042102480B
:104D9000FEF782F910BD00000008024000B587B0A0
:104DA00000BF002001901048006840F004000E4948
:104DB00008600846006800F00400019000BF00BFD2
:104DC000042002900120039002200490032005900B
:104DD00002A90648FEF74CF8012204210348FEF719
:104DE0005BF907B000BD0000303802400008024007
:104DF00010B50C48006898B900224FF414710120D6
:104E00003CF05EFB074908600846006808B10120D5
:104E100000E0002020B92C22034904A0FBF78AFB04
:104E200010BD0000B0090020A0C106084572726FD5
:104E3000723A2025732C2025640D0A0010B5FEF768
:104E400045F93DF06BF8012801D03CF00DFB10BD99
:104E50000348006840F47000014908607047000092
:104E600088ED00E010B50248FEF729FF10BD0000F4
:104E70005810002016480068006900F0010028B3AF
:104E80006FF001001249096808611248B0F880000B
:104E900020F4004000F500400E49A1F8800000BF5A
:104EA0000B480068006A41F21111084068B90848CF
:104EB0000068006A8910084038B905480068006831
:104EC00020F0010002490968086000BF7047000037
:104ED000E81000207411002010B50268294B984298
:104EE0000ED0B0F1804F0BD0274B984208D0274B03
:104EF000984205D0264B984202D0264B984203D1C7
:104F000022F070024B681A431E4B984220D0B0F139
:104F1000804F1DD01C4B98421AD01C4B984217D082
:104F20001B4B984214D01B4B984211D01A4B9842FD
:104F30000ED01A4B98420BD0194B984208D0194BFF
:104F4000984205D0184B984202D0184B984203D192
:104F500022F44072CB681A4322F080034C6943EA82
:104F6000040202608B68C3620B688362054B98423F
:104F700002D0084B984201D10B69036301234361BE
:104F800010BD000000000140000400400008004087
:104F9000000C00400004014000400140004401407A
:104FA0000048014000180040001C00400020004064
:104FB00030B501F01F05012404FA05F3046A9C438F
:104FC0000462046A01F01F0502FA05F52C4304622D
:104FD00030BD000030B5056A25F001050562026AA2
:104FE0004368846924F0700424F003040D682C43A2
:104FF00022F002028D682A43104DA84200D103E03E
:105000000F4DA84206D100BF22F00802CD682A4306
:1050100022F00402094DA84202D0094DA84207D14E
:1050200023F4807323F400734D692B438D692B4364
:10503000436084614D684563026230BD00000140F9
:105040000004014030B5056A25F010050562026ACA
:105050004368846924F4E04424F440740D6844EA0D
:10506000052422F020028D6842EA0512124DA84262
:1050700000D103E0114DA84207D100BF22F0800209
:10508000CD6842EA051222F040020B4DA84202D040
:105090000A4DA84209D123F4806323F400634D69CB
:1050A00043EA85038D6943EA8503436084614D6863
:1050B0008563026230BD0000000001400004014031
:1050C00030B5056A25F480750562026A4368C469D3
:1050D00024F0700424F003040D682C4322F40072C1
:1050E0008D6842EA0522124DA84200D103E0114D1D
:1050F000A84207D100BF22F40062CD6842EA05222F
:1051000022F480620A4DA84202D00A4DA84209D179
:1051100023F4805323F400534D6943EA05138D694A
:1051200043EA05134360C4614D68C563026230BD44
:10513000000001400004014030B5056A25F48055A7
:105140000562036A4468C26922F4E04222F44072B4
:105150000D6842EA052223F400538D6843EA0533C3
:10516000084DA84202D0084DA84204D124F480443E
:105170004D6944EA85144460C2614D680564036268
:1051800030BD0000000001400004014070B511482E
:1051900000680068C0F34010D8B10E48006840684D
:1051A000C6B20D4C354600BF204634F08CFE40F2AE
:1051B000FF31081A80B200B90AE0B4F8000425549F
:1051C000B4F80004401CC0F30900A4F8000400BFB8
:1051D00000BF70BD381700203413002070B505469D
:1051E000AC6B0020E085E0842046FEF77DFF70BDBB
:1051F0000168C96821F490710268D1600168496949
:1052000021F0010102685161016B012905D101689A
:10521000C96821F010010268D160202180F83E1099
:1052200000210163704710B504462068C06820F073
:1052300040002168C860202084F83D002046FFF728
:105240000AFB002010BD70B5044694F83E002228E9
:1052500056D1A068B0F5805F0CD1206950B9002507
:10526000A66A20684068C0F308003080A06A801CED
:10527000A06215E0A56A0026A068B0F5805F03D0A3
:10528000A06828B9206918B920684068287004E02F
:105290002068406800F07F002870A06A401CA0626F
:1052A000E08D401E80B2E08540BB2068C06820F0E1
:1052B00020002168C8602068C06820F480702168E0
:1052C000C8602068406920F0010021684861202002
:1052D00084F83E00206B01280AD12068C06820F0C5
:1052E00010002168C860A18D2046FEF7FCFE02E098
:1052F0002046FFF7F9F90020206370BD0020FCE78D
:105300000220FAE72DE9F84F04462068006920F4EE
:105310004050E1680843216808612169A06808439A
:1053200061690843E169084300902068C06849F258
:105330000C618843009908432168C860206840696F
:1053400020F44070A16908432168486176492068CB
:10535000884203D075492068884203D1FEF73CF8A3
:10536000814602E0FEF728F88146E069B0F5004F7B
:105370006CD102206168A0FB015003461920A9FBF3
:10538000007001462A463846FBF74BF86421B0FB13
:10539000F1F04FEA001A02206168A0FB01510B46B0
:1053A0001920A9FB00712A463846FBF73AF88346D4
:1053B00002206168A0FB015003461920A9FB00717F
:1053C0002A463846FBF72DF86421B0FBF1F000EBDC
:1053D000C00101EB0010ABEB8000322101EBC000FB
:1053E0006421B0FBF1F000F0F8000AEB400A022063
:1053F0006168A0FB015003461920A9FB007001461B
:105400002A463846FBF70DF8834602206168A0FB68
:10541000015003461920A9FB00712A463846FBF7C4
:1054200000F86421B0FBF1F000EBC00101EB0010CB
:10543000ABEB8000322101EBC0006421B0FBF1F046
:1054400000F007005044216888606AE00420616829
:10545000A0FB015003461920A9FB007001462A4613
:105460003846FAF7DEFF824604206168A0FB01504F
:1054700003461920A9FB007001462A463846FAF770
:10548000D0FF6421B0FBF1F000EBC00101EB001094
:10549000AAEB8000322101EB00106421B0FBF1F097
:1054A00000F0F00A04206168A0FB01700346192097
:1054B000A9FB00513A462846FAF7B3FF6421B0FB36
:1054C000F1F00AEB001A04206168A0FB01510B46C1
:1054D0001920A9FB00712A463846FAF7A2FF834635
:1054E00004206168A0FB015003461920A9FB00704D
:1054F00001462A463846FAF794FF6421B0FBF1F0E2
:1055000000EBC00101EB0010ABEB8000322101EB9E
:1055100000106421B0FBF1F000F00F00504421684E
:105520008860BDE8F88F00000010014000140140C1
:1055300010B5034699629A85DA8500201864222006
:1055400083F83E0000BF002083F83C0000BF1868CD
:10555000C06840F480701C68E0601868406940F0E2
:1055600001001C6860611868C06840F020001C6879
:10557000E060002010BD014691F83D00212828D1AF
:105580008868B0F5805F0BD1086948B90A6A10884D
:10559000C0F308000B685860086A801C086205E0C8
:1055A0000B6A581C086218780B685860C88C401E3B
:1055B00080B2C88458B90868C06820F080000B68C1
:1055C000D8600868C06840F040000B68D8600020D0
:1055D00070470220FCE72DE9F04104460D461746CE
:1055E0009846069E21E0701CF8B12EB1FDF760FDD3
:1055F000A0EB0800B04218D92068C06820F4D07031
:105600002168C8602068406920F001002168486175
:10561000202084F83D0084F83E0000BF002084F87C
:105620003C0000BF0320BDE8F081206800682840EE
:10563000A84201D1012000E00020B842D3D00020D0
:10564000F1E7000010B5124800680068C0F3401090
:10565000C8B110484068C4B2232C05D100200E49BF
:1056600008800E4908700EE00B4801880088401C35
:10567000094A10800948445410460088C72802DBB4
:105680000020114608800248FEF730FD10BD0000E2
:10569000A80E00200010014016080020300F002046
:1056A00010B50248FEF722FD10BD0000EC0E0020F0
:1056B0001CB5394800680068C0F3C00090B100BF55
:1056C000002000903448006800680090324800686C
:1056D0004068009000BF00BF2F48006800682E4857
:1056E000006840682C4800680068C0F3401000283B
:1056F00051D04FF0FF33012201A92748FEF764FF84
:105700002648B0F88000C0F30E007F2827DA00207A
:105710002349096848622148B0F88000C0F30E00B0
:1057200038B91F480068006840F001001C4909684A
:1057300008609DF804001949B1F88010C1F30E010A
:10574000164A50541046B0F88000401C1146B1F87B
:10575000801060F30E011046A0F880101BE00F4887
:10576000B0F880006FF30E000C49A1F880009DF89E
:105770000400B1F88010C1F30E01084A50541046DD
:10578000B0F88000401C1146B1F8801060F30E01A3
:105790001046A0F880101CBD3011002074110020AC
:1057A000E810002000BFFEE703B401984100009814
:1057B00050EAC12018BF04204A0D18BF40F0010074
:1057C00040F2FF72B2EB515F08BF40F002000128C7
:1057D00008BF052002B0704702480068C0F30220ED
:1057E000704700000CED00E010B5002804DB0A074C
:1057F000130E054A135406E00A07140E034A00F07C
:105800000F031B1FD45410BD00E400E018ED00E0AE
:1058100070B50446002508E02168481C206008781F
:10582000303805EB850100EB41052168087800F070
:1058300004F80028F0D1284670BD0146302903DB6A
:10584000392901DC012070470020FCE730380A28A4
:1058500001D20120704700207047000010B54021A0
:10586000074801F0E3FA00220421064830F062F80C
:105870000549086002F05EFE00200449087010BD72
:1058800034B40020018600085C0B0020580B002077
:1058900030B50346B1F90040B2F90050AC4202DD28
:1058A000B1F9004001E0B2F900401C80B1F90240BA
:1058B000B2F90250AC4202DDB1F9024001E0B2F9A6
:1058C00002405C80B1F90440B2F90450AC4202DA03
:1058D000B1F9044001E0B2F904409C80B1F90640FE
:1058E000B2F90650AC4202DAB1F9064001E0B2F971
:1058F0000640DC800120B3F90040B3F90450AC420B
:1059000005DCB3F90240B3F90650AC4200DD0020DB
:1059100030BDF8B504460D4616460027B4F9000020
:10592000B5F90010884212DBB4F90200B5F9021093
:1059300088420CDBB4F90400B5F90410884206DC97
:10594000B4F90600B5F90610884200DC01270FB94A
:105950000020F8BD0EB90120FBE72088ADF800005B
:105960006088ADF8020032466946284600F0A7F884
:1059700008B90020EDE7A088ADF800006088ADF818
:10598000020032466946284600F099F808B900201E
:10599000DFE72088ADF80000E088ADF8020032466D
:1059A0006946284600F08BF808B90020D1E7A088A6
:1059B000ADF80000E088ADF802003246694628469E
:1059C00000F07DF808B90020C3E70120C1E70246D6
:1059D000B2F90000B1F90430984213DCB2F90400C6
:1059E000B1F9003098420DDBB2F90200B1F906308E
:1059F000984207DCB2F90600B1F90230984201DBA7
:105A0000012070470020FCE7F8B504460D46164615
:105A1000B4F90400B5F90010884211DBB4F90600AE
:105A2000B5F9021088420BDBB4F90000B5F9041097
:105A3000884205DCB4F90200B5F90610884201DDA0
:105A40000120F8BD0EB90020FBE72088ADF800006A
:105A50006088ADF8020032466946284600F02FF80B
:105A600008B10020EDE7A088ADF800006088ADF82F
:105A7000020032466946284600F021F808B10020AD
:105A8000DFE72088ADF80000E088ADF8020032467C
:105A90006946284600F013F808B10020D1E7A08835
:105AA000ADF80000E088ADF80200324669462846AD
:105AB00000F005F808B10020C3E70120C1E72DE997
:105AC000FC5F05460E4614464FF0000AB6F900008A
:105AD000B5F90010884213DBB6F90000B5F90410DF
